:09000000020771B29022B29122B4
:0E000B00020AEC120BA6120B6F00D2AF0022FD
:10002300020A4AE709F608DFFA8046E709F208DF21
:10003300FA803E88828C83E709F0A3DFFA8032E3FB
:1000430009F608DFFA8078E309F208DFFA8070889E
:10005300828C83E309F0A3DFFA806489828A83E0D8
:10006300A3F608DFFA805889828A83E0A3F208DFC7
:10007300FA804C80D280FA80C680D4806980F28076
:1000830033801080A680EA809A80A880DA80E2809C
:10009300CA803389828A83ECFAE493A3C8C582C8F1
:1000A300CCC583CCF0A3C8C582C8CCC583CCDFE95B
:1000B300DEE7800D89828A83E493A3F608DFF9ECF7
:1000C300FAA9F0EDFB2289828A83ECFAE0A3C8C582
:1000D30082C8CCC583CCF0A3C8C582C8CCC583CCA9
:1000E300DFEADEE880DB89828A83E493A3F208DF18
:1000F300F980CC88F0EF60010E4E60C388F0ED24E8
:1001030002B4040050B9F582EB2402B4040050AFEA
:10011300232345822390007673BB010689828A8359
:10012300E0225002E722BBFE02E32289828A83E4B3
:100133009322BB010CE58229F582E5833AF583E03E
:10014300225006E92582F8E622BBFE06E92582F85D
:10015300E222E58229F582E5833AF583E49322BB23
:10016300010FF8E58229F582E5833AF583E028F06B
:10017300225009C58229F8E58226F622BBFE09C56D
:100183008229F8E22582F222F8EA2583F583E993AE
:100193002822C5F0F8A3E028F0C5F0F8E58215821F
:1001A30070021583E038F022A3F8E0C5F025F0F0E3
:1001B300E582158270021583E0C838F0E822E88FE3
:1001C300F0A4CC8BF0A42CFCE98EF0A42CFC8AF0D8
:1001D300EDA42CFCEA8EF0A4CDA8F08BF0A42DCCDA
:1001E3003825F0FDE98FF0A42CCD35F0FCEB8EF033
:1001F300A4FEA9F0EB8FF0A4CFC5F02ECD39FEE419
:100203003CFCEAA42DCE35F0FDE43CFC2275F0085D
:10021300758200EF2FFFEE33FECD33CDCC33CCC54B
:100223008233C5829BED9AEC99E58298400CF58266
:10023300EE9BFEED9AFDEC99FC0FD5F0D6E4CEFBD8
:10024300E4CDFAE4CCF9A88222B800C1B90059BAC6
:10025300002DEC8BF084CFCECDFCE5F0CBF97818F4
:10026300EF2FFFEE33FEED33FDEC33FCEB33FB10EE
:10027300D703994004EB99FB0FD8E5E4F9FA227808
:1002830018EF2FFFEE33FEED33FDEC33FCC933C91A
:1002930010D7059BE99A4007EC9BFCE99AF90FD824
:1002A300E0E4C9FAE4CCFB2275F010EF2FFFEE3344
:1002B300FEED33FDCC33CCC833C810D7079BEC9A83
:1002C300E899400AED9BFDEC9AFCE899F80FD5F00C
:1002D300DAE4CDFBE4CCFAE4C8F922E8600FECC31E
:1002E30013FCED13FDEE13FEEF13FFD8F122BB0158
:1002F3000DE58229F582E5833AF5830203F1500780
:10030300E92582F80203E5BBFE07E92582F802032B
:10031300FDE58229F582E5833AF583020409BB01F1
:100323000DE58229F582E5833AF5830203755007CB
:10033300E92582F802044FBBFE07E92582F802048F
:100343005B22BB010DE58229F582E5833AF5830241
:1003530004265007E92582F8020419BBFE07E925A4
:1003630082F8020432E58229F582E5833AF58302B5
:10037300043FECF0A3EDF0A3EEF0A3EFF022A8828C
:100383008583F0D083D082120398120398120398C6
:10039300120398E473E493A3C583C5F0C583C8C56A
:1003A30082C8F0A3C583C5F0C583C8C582C8228AA5
:1003B300838982E473EC8EF0A4CCC5F0CCCDF8EF46
:1003C300A4CEC5F02DFDE43CFCE8A42EC8C5F03D49
:1003D300FDE43CFCEFA4FFE5F028FEE43DFDE43C36
:1003E300FC22E6FC08E6FD08E6FE08E6FF22E0FC48
:1003F300A3E0FDA3E0FEA3E0FF22E2FC08E2FD0888
:10040300E2FE08E2FF22E493FC740193FD7402937D
:10041300FE740393FF22E6FB08E6F908E6FA08E612
:10042300CBF822E0F8A3E0F9A3E0FAA3E0FB22E291
:10043300FB08E2F908E2FA08E2CBF822E493F87445
:100443000193F9740293FA740393FB22ECF608ED1B
:10045300F608EEF608EFF622ECF208EDF208EEF2FB
:1004630008EFF22290006EEBF0A3EAF0A3E9F0129A
:10047300097D900071120375C28C90006EE0FBA39E
:10048300E0FAA3E0F912011C25E025E0FFE5895419
:10049300FB4FF589900001120135FFE58954FC4FAC
:1004A300F5899000021201357F0070027F01EFC4CD
:1004B3003333335480FFE58E547F4FF58E90006EB7
:1004C300E0FBA3E0FAA3E0F99000041203457F40A8
:1004D3007E427D0F7C0012024CC004C005C006C0E2
:1004E30007E58E7F0020E7027F01EF75F00BA42460
:1004F30001FFE435F0FE3395E0FDFCD003D002D0DC
:1005030001D0001201C1A804A905AA06AB079000F7
:1005130071E0FCA3E0FDA3E0FEA3E0FF12024CC3E5
:10052300E49FFFE49EFE74019DFDE49CFC90006E3D
:10053300E0FBA3E0FAA3E0F990000412032190008A
:10054300041202F190007912037590000112013533
:10055300640290006E7014E0FBA3E0FAA3E0F9904C
:1005630000041202F18F8A8F8C801DE0FBA3E0FA56
:10057300A3E0F99000041202F18F8A9000041202A2
:10058300F178081202DE8F8C90006EE0FBA3E0FA94
:10059300A3E0F9900003120135FFE58F54FE4FF5F8
:1005A3008F90000812013524FF928C7F0022900067
:1005B30065EBF0A3EAF0A3E9F0900064E0D39400C4
:1005C3007480948050030206C6C288E4FF900064DE
:1005D300E0FEEFC39E40030206C6EF75F008A424B5
:1005E30024F582E43400F583E0FBA3E0FAA3E0F909
:1005F300C003C002C001900065E0FBA3E0FAA3E0E2
:10060300F9D082D083D0E06B7008E965827003EA89
:10061300658360030206C2900064E014F0E0FE7597
:10062300F008A42424F582E43400F583E0FBA3E07E
:10063300FAA3E0F9EF75F008A42424F582E434006A
:10064300F583EBF0A3EAF0A3E9F0EE75F008A42438
:1006530029F582E43400F583E0FCA3E0FDEF75F0B7
:1006630008A42429F582E43400F583ECF0A3EDF02B
:10067300900064E0FE75F008A42427F582E43400BA
:10068300F583E0FCA3E0FDEF75F008A42427F582D1
:10069300E43400F583ECF0A3EDF0EE75F008A42448
:1006A3002BF582E43400F583E0FEEF75F008A42413
:1006B3002BF582E43400F583EEF0D2887F00220F1D
:1006C3000205D0D2887F0122E4900065F090006497
:1006D300E0FF900065E0FEC39F4003020770EE75E4
:1006E300F008A42427F582E43400F583E0FEA3E0B8
:1006F3004E7071900065E0FF75F008A4242BF5821D
:10070300E43400F583E06401605AEF75F008A42433
:1007130029F582E43400F583E0FCA3E0FDEF75F0F6
:1007230008A42427F582E43400F583ECF0A3EDF06C
:10073300900065E0FF75F008A42424F582E43400FA
:10074300F583E0FBA3E0FAA3E04A4B6017EF75F0F3
:1007530008A42424F582E43400F583A3E0FAA3E09B
:10076300F91203B2900065E004F00206D02278ED9E
:10077300E4F6D8FD9000007FFF7E1DE4F0A3DFFCCC
:10078300DEFA7581070207C6020A9EE493A3F8E422
:1007930093A34003F68001F208DFF48029E493A3D6
:1007A300F85407240CC8C333C4540F4420C88340EF
:1007B30004F456800146F6DFE4800B0102040810BE
:1007C300204080900C1DE47E019360BCA3FF543F46
:1007D30030E509541FFEE493A360010ECF54C025F6
:1007E300E060A840B8E493A3FAE493A3F8E493A3E6
:1007F300C8C582C8CAC583CAF0A3C8C582C8CAC54A
:1008030083CADFE9DEE780BE900065EBF0A3EAF080
:10081300A3E9F0A3ECF0A3EDF0E4FF900064E0FEA5
:10082300EFC39E506EEF75F008A42424F582E434E0
:1008330000F583E0FBA3E0FAA3E0F9C003C002C024
:1008430001900065E0FBA3E0FAA3E0F9D082D08336
:10085300D0E06B7008E965827003EA6583703190BC
:100863000068E0FCA3E0FDEF75F008A42427F582FF
:10087300E43400F583ECF0A3EDF0EF75F008A42465
:1008830029F582E43400F583ECF0A3EDF07F002238
:100893000F80887F0122900065ECF0A3EDF09000BB
:1008A30064E0C39408748094805062E0FF75F0089C
:1008B300A42424F582E43400F583EBF0A3EAF0A347
:1008C300E9F0900065E0FCA3E0FDEF75F008A424D7
:1008D30029F582E43400F583ECF0A3EDF090006495
:1008E300E0FF75F008A42427F582E43400F583ECD7
:1008F300F0A3EDF0EF75F008A4242BF582E43400A7
:10090300F583E4F0900064E004F07F00227F01228D
:10091300900065EBF0A3EAF0A3E9F0E4FF90006434
:10092300E0FEEFC39E5050EF75F008A42424F58237
:10093300E43400F583E0FBA3E0FAA3E0F9C003C0CD
:1009430002C001900065E0FBA3E0FAA3E0F9D082C6
:10095300D083D0E06B7008E965827003EA65837029
:1009630013EF75F008A4242BF582E43400F583ED2E
:10097300F07F00220F80A67F012278FBE6FBAF9F6A
:10098300C3EF9BFFE49400FEE49400FDE49400FCB9
:10099300E47BF07AD2F9F81201C1E42FFFEE34368A
:1009A300FEED346EFDEC3401FC900075120375907E
:1009B3000075E0FCA3E0FDA3E0FEA3E0FFC0079009
:1009C300FE01E0FBE4FAF9F8D00712024C9000753F
:1009D300120375900075E0FCA3E0FDA3E0FEA3E025
:1009E300FF2290001574FFF0A37406F0A374CBF0FC
:1009F30090001274FFF0A3740BF0A37430F0900016
:100A03001874FFF0A37408F0A37499F0A374FFF0B3
:100A1300A37405F0A374B1F0A374FFF0A37408F0FA
:100A2300A3740BF0A374FFF0A37409F0A37413F081
:100A3300E4900064F078007C007D017B017A00790A
:100A430012FE7F120200F6C0E0C0F0C083C082C075
:100A5300D075D000C000C001C002C003C004C005EF
:100A6300C006C007E59830E0085398FE120BD48007
:100A73000FE59830E10A5398FD900082E054FEF0B0
:100A8300D007D006D005D004D003D002D001D000C7
:100A9300D0D0D082D083D0F0D0E03212000E120931
:100AA300E57BFF7A007903C002900006A3E0FAA376
:100AB300E0F5828A83D0027DF47C011203B67BFFCA
:100AC3007A007906C002900006A3E0FAA3E0F5825B
:100AD3008A83D0027DF47C011203B6900003A3E065
:100AE300FAA3E0F91203B280F2C0E0C0F0C083C001
:100AF30082C0D075D000C000C001C002C003C004D2
:100B0300C005C006C007900000A3E0FAA3E0F912F5
:100B130003B2D007D006D005D004D003D002D00151
:100B2300D000D0D0D082D083D0F0D0E032E4FF9098
:100B33000064E0FEEFC39E5032EF75F008A4242753
:100B4300F582E43400F583E0FCA3E0D39400EC9455
:100B5300004015EF75F008A42427F582E43400F56E
:100B63008374FFF5F01201950F80C42278657C0031
:100B73007D017BFF7A0C793A7E007F091200F6E44F
:100B8300900066F0900069120381000003E8900072
:100B93006D7401F0FB7A0079651204677D01E4FF4F
:100BA300020BFD75930075940075910075920075A5
:100BB300950075960075B10075B20075B30075B4F4
:100BC3000075C90075CA0043FF105395FE43960193
:100BD30022AF99EF647F6007AF99EF64807015903F
:100BE3000081E004F0C3940A74809480400BE4F025
:100BF30075C76022E4900081F022ED24FF92A9EFF3
:100C03005402FEE5B754FD4EF5B7EF540125E0FF5E
:100C1300E5B854FD4FF5B87F002241008100440040
:100C2300790000000044007D0000000041008200C4
:100C330000000000000000000000000000000000B1
:0B0C43000000000000000000000000A6
:00000001FF
